:020000040800F2
:1000000000000110FD720508614D0008A9D0030829
:100010009D7305089D7305089D7305080000000089
:100020000000000000000000000000005D4D00081E
:10003000594D000800000000554D000899BD040806
:100040009D7305089D7305089D7305089D7305083C
:100050009D7305089D730508B9C70408C9C704083E
:100060009D730508C5C70408C1C70408BDB00008D2
:10007000ADB000089DB000088DB0000879B0000850
:1000800065B0000851B000089D7305089D73050810
:100090009D7305089D7305089D730508BDC7040879
:1000A000F9B10008D1B10008A9B1000821B20008D7
:1000B00095B1000881B100086DB100089D73050875
:1000C0009D7305089D7305089D7305089D730508BC
:1000D0009D73050819BD00080DBD000801BD00088D
:1000E000B5C704089D730508057900081DB100080F
:1000F000F5B00008CDB0000845B100083DB00008DB
:100100009D7305089D73050859B100089D73050886
:10011000F5BC0008E9BC00089D7305089D7305083F
:1001200029B0000815B0000801B00008EDAF0008C4
:10013000D9AF00089D7305089D7305089D730508D8
:100140009D7305089D7305089D730508E946000821
:10015000C5AF0008B1AF00089DAF00089D7305084A
:100160009D7305089D7305089D7305089D7305081B
:100170009D7305089D7305089D7305089D7305080B
:080180009D7305089D7305083D
:1001880009284FF0010307D903EB83035B00B0FB99
:10019800F3F2092AF8D883B3F0B4DFF864C0002575
:1001A8000EE00A2A1E460F462346B4BF30245724C1
:1001B8002244092E01F1010105F101053A700FD918
:1001C800ACFB0324E408B0FBF3F203FB1200002DA0
:1001D800E7D1002AE5DC092B06D8303201F8012BDB
:1001E8000023F0BC0B707047ACFB0436B0FBF4F294
:1001F800234604FB1200F408EBE700230B7070475A
:10020800CDCCCCCCF0B40D6800240CE0BCF1050FCB
:1002180018D8A0F137030A2B14D104EB840415F87D
:10022800010B03EB4404A0F13003DEB2092EA0F168
:100238006107A0F1410CF0D9052FE7D8A0F15703C9
:100248000A2BEAD00D601460F0BC704791B10A6BBC
:10025800824214D9144BDA6A914220D34C39914224
:100268001DD30B6B9842F9D38B6B9842F6D80B468B
:10027800184670470C4BD96A0A6B904212D30B6828
:100288000BB9F5E70A6B90420B4602D38A6B904292
:10029800EED951F84C3F002BF4D118467047002393
:1002A800184670470A46D9E7A81C00202DE9F047F0
:1002B800CC0143D10346224A43F8082B4FF0FF32C2
:1002C8004260022418467E26DFF87880D8F83090FD
:1002D8002644013E051D49466FF070474FF0010A5C
:1002E80008E0A3421CD0631C45F8043C321B1C46A2
:1002F8000435CAB10B6BA34202D88B6BA34204D25C
:100308002046FFF7A3FF014690B10A794B6B002AFC
:10031800E7D1A34204D0E6D245F8042C631CE5E7F4
:1003280045F8047C631CE1E7C8F83010BDE8F087A5
:1003380045F804AC321B631C4946D8E78026C3E75E
:10034800F8FFFF0FA81C002070B4C3080D4CE25C36
:1003580000F00706B24004EBD004D2B20020C6F188
:1003680008038B4228BF0B46C3F108052A41984071
:10037800C91A40EA02004FF0000614F8012FEED126
:1003880070BC7047201D0020054AD2E92432581E4F
:10039800801A934294BF4FF40063002318447047B7
:1003A800A81C0020012380F849307047064BD3F879
:1003B800980000B97047D3F89800A0F10500B0FA8A
:1003C80080F04009704700BFA81C00200649D1E909
:1003D80027329342FDD05A1C0B44C2F30A0293F809
:1003E800A400C1F89C207047A81C0020044BD3E946
:1003F8002703984288BF03F50063181A704700BFA7
:10040800A81C002001207047704700BF704700BF3C
:1004180030B4134DD5E927239A4286BF03F500640B
:10042800A21A9A1A0A44B2F5006F13D8A9B1014466
:100438004A1E013810F8014FE918824203F10103FE
:1004480081F8A440C3F30A03F4D1C5F8A030002012
:1004580030BC7047022030BC70470846F8E700BF40
:10046800A81C0020212838B50C4605D022282DD0FC
:10047800202813D0002038BD0029FBD0072AF9D145
:10048800194BD3F8A80893F8AC1893F8AD2893F84B
:10049800AE38206021716271A371EBE70029E9D0C1
:1004A800072AE7D1104DD5F8A43813B10968002000
:1004B8009847206821796279A379C5F8A80885F852
:1004C800AC1885F8AD2885F8AE38D3E70029D1D027
:1004D800022ACFD1044BD3F8B038002BCAD00988F0
:1004E80000209847C6E700BFA81C0020024B002048
:1004F800C3F89800704700BFA81C0020044B0020D8
:100508000522C3F89820C3F8B008C3F8A4087047B8
:10051800A81C0020704700BF704700BF704700BF8D
:10052800704700BF704700BF704700BF704700BFEB
:10053800042301480B807047000000201223014863
:100548000B80704704000020A0B182680D4B12B1E7
:1005580007229A7070471978DA6003294FF004006F
:100568000CBF80214FF48071C3E901111A611A751B
:1005780098707047034B41F2B41101225A545A70D3
:10058800704700BF185300200378022B10D0006971
:1005980008B9012070470B4B1B78032B0EBF0A4B81
:1005A80080B24FF6F773984294BF0020012070473D
:1005B800064A43681268B3EB422F2CBF0120002083
:1005C800704700BF18530020F7FFFF0F3865002061
:1005D8000378022B14D030B4104A4368006941F202
:1005E800182441F210211559515841F20C242B407E
:1005F80012595B0A023801FB0030104430BC7047C6
:10060800064B426841F2042103F590505B5800689C
:1006180000EB430000EB5220704700BF1853002046
:1006280000487047081D0020034B93F85C0003281E
:1006380094BF002001207047A81C0020034B93F8AA
:100648005C00003818BF0120704700BFA81C0020BC
:1006580030B41D6995420AD314468A1895429B699D
:1006680038BF291B0A46E11830BC5CF011BA30BC0F
:10067800704700BF00207047002070470120704776
:100688000120704700207047002070474FF4007029
:10069800024B10609B680B6000207047A81C00206C
:1006A8000023F0B452004F1C1E46B0F1204F4FEA11
:1006B800107404F130052ABF3734CD54CC54FE549D
:1006C80002339A424FEA0010EFD1F0BC704700BFE6
:1006D8000B4A0C4B10681B681A22C0180A8001D1FB
:1006E8000948704710B5094B09491C680822FFF7EB
:1006F800D7FF204607490422FFF7D2FF024810BD62
:10070800E8F7FF1FECF7FF1F18000020EAF7FF1FAC
:100718001A0000202A000020042301480B8070479B
:1007280034000020122301480B8070473800002055
:1007380030B50B4D83B008240123D5F88C00002276
:100748000DF107014CF00AFE9DF80730FF2B04D08D
:10075800013CF1D1204603B030BD012003B030BDCB
:10076800A81C002070B50B4E82B0451C0024D6F89A
:100778008C00012300220DF107014CF0EFFD9DF8DC
:100788000700FF2804F1010401D1AC42EFD102B007
:1007980070BD00BFA81C002070B5114D82B00024A8
:1007A8002146022301AAD5F88C00AC654FF6FF5606
:1007B800ADF804604CF0D2FD0120FFF7D3FFFF280D
:1007C80008D0D5F8B438EB640922204685F85C20B7
:1007D80002B070BD0423022085F85C3002B070BD01
:1007E800A81C002070B5044608200D46FFF7BAFF84
:1007F800FF2814D0FE2801D0022070BD094E2B46D8
:100808002146D6F88C0000224CF0A8FD0022D6F82C
:100818008C00114602234CF0A1FD002070BD012080
:1008280070BD00BFA81C002070B582B040F0400623
:1008380004460D0E080C0A0A95238DF804108DF84D
:1008480000608DF801508DF802008DF803208DF8B6
:100858000530FFF76DFF00B964B9084A0623002187
:10086800D2F88C006A464CF079FD0820FFF77AFF31
:1008780002B070BDFF2002B070BD00BFA81C0020F0
:1008880070B50546134895F91030AA6803EB830341
:1008980000EB83039207DE6C0C4610D5D4E90123E4
:1008A800216830464CF0BEF8D4E90423E1683046AC
:1008B8004CF0B8F8AB689B0706D5012070BD686995
:1008C8004BF022FC00BFE9E700BF68694BF0A6FEC9
:1008D800012070BD000000202DE9F04F4D4F97F822
:1008E800BE58C5B005B1FEE797F8BF28DFF82CB1B0
:1008F8000446012302F0F70203AED7F8B80887F8D8
:10090800BE388846294687F8BF284CF079FAFF2C6C
:100918004FF00903747088BFA40833708CBF04F0CB
:10092800C00CAC46022300204FF00A0A0DF10D0955
:100938004FF00B0E0DF10F0111E0B4F5827F06F8B0
:1009480003A009F8032018F8002011D80130362830
:1009580006F805E0CA5403F1060523460FD09D1C8E
:100968004CEA0002B5F5827F03F10404D2B2E4D95F
:1009780001306FF00044362823465D46EFD1B5F5C7
:10098800827F43D808210DF10D023155A021D154A1
:100998000233D7F8B848204894F91020A16802EB30
:1009A800820200EB8202D56C8A0723D5324628469C
:1009B80000214CF037F8A3689B0722D5D7F8B80870
:1009C8000DF10B02A0214CF051F948B9D7F8F039D4
:1009D800B7F8F42959690A4214BF5A831A83EDE714
:1009E8009DF80B3013F02003F0D187F8BE3845B0DE
:1009F800BDE8F08F606901934BF086FB00BF019B57
:100A0800D4E700BF60694BF009FED7E76FF00043F9
:100A1800BFE700BFA81C00200000002001000080E4
:100A28002DE9F04FDFF8CCC2A7B000230CF53165F3
:100A38000A269CF8C01801932F4618469E461C4665
:100A48000096A4E003EBCE0E0CEB4E03CEF307208A
:100A5800B3F84C2B56075FFA8EF7D3B24FEA122A37
:100A680040F1CF804A0615D404F10208B8F18C0F82
:100A780041F0400100F2258126AE06EB0409621C14
:100A880032444FF0040609F88C6C0126444601965E
:100A980002F88C1C04F10209B9F18C0F40F0020B2A
:100AA80000F2148126AA224404F104084FF0050636
:100AB800B8F18C0F02F88C6C02F88BBC00F206813E
:100AC80026AE06EB090B04F106099B004FF006065B
:100AD800B9F18C0F0BF88C6CDBB202F8897C00F250
:100AE800F5800DF1980BC34404F108084FF0070690
:100AF800B8F18C0F0BF88C6C02F8873C00F2E6809A
:100B080026AB994404F10A034FF005068C2B09F82B
:100B18008C6C02F8850C00F2D98026A8804404F178
:100B28000C004FF006068C2808F88C6C02F8837CC1
:100B380000F2CC800B3426AA224426AC23444FF082
:100B4800070603F88C6C044602F88CAC4FEA5E107A
:100B58000EF01F0255F82030012606FA02F223EAA9
:100B6800020345F82030009B013B009300F08B8086
:100B78000EF10100B0F5F07F80F085804FEA501E3D
:100B8800594B05EB8E079F424FEA8E0E7BD23A688F
:100B980000F01F034FF0FF3000FA03F3134093FAFD
:100BA800A3F3B3FA83F3DBB2202B7FF44BAF4E4BA6
:100BB8003A1D9A421BD24D4B009EDB1B23F00303C8
:100BC80008371F4401E0BA4211D0104604320368C6
:100BD80093FAA3F3B3FA83F35FFA83FEBEF1200F0F
:100BE800F1D0401B1EEBC00E00967FF52DAF019B88
:100BF8000BB18CF8C0182046002C48D127B0BDE8AE
:100C0800F08F4E0603D401F03808984514D021F02F
:100C180078011143A21C8C2AC9B252D826AE631C93
:100C280006EB0408334414464FF0040208F88C2CF1
:100C38000122019203F88C1CA31C8C2B46D826AAEF
:100C480002EB0408221D4FF005068C2A08F88C6C6C
:100C580008F88B0C3AD826A80344A01D4FF00606C6
:100C68008C2803F88C6C08F8897C2FD8053426ABBF
:100C7800234426AC224404464FF0070002F88C0CAB
:100C880003F88CAC62E7019B0BB18CF8C018DCF858
:100C9800B858174A95F91030A96803EB830302EB9B
:100CA80083038A07DE6C1AD52346304603AA00213F
:100CB8004BF0B8FEAB689B070BD5012027B0BDE809
:100CC800F08F012301936FF000443FE76FF0004479
:100CD8003CE700BF68694BF0A1FC01208EE768691A
:100CE8004BF012FA00BFDFE7F4270020EF270020BF
:100CF80000000020A81C00202DE9F0432E4C2F4EA8
:100D08002F4B304DC4F82C6F04F6487E4FF0120C70
:100D1800C4F8303F85B0002304F5776980460F4654
:100D2800164604F5716142F6F8224020C4F8485F7F
:100D3800C4F84C5FC4F8505FC4F8545FC4F8585FF7
:100D4800C4F85C5FC4F8605FC4F8645FC4F8685FA7
:100D5800C1E90223C4F83CEF84F810CFC4F8409FDF
:100D680031F086FE054600B30BF05EFF98F80020D0
:100D78003F78034695F9040000961D1E14BF032111
:100D88000121002A0CBF07220622002F14BF0823C6
:100D980000231A43CDE901124B460B4A402131F09A
:100DA8007FFD2DB9003818BF012005B0BDE8F083DC
:100DB800C4F8B00FF6E700BFA81C00205590020841
:100DC80079900208E003E003A9A00208F8B5184CDE
:100DD80094F8B43F002BFBD139B301444E1E451E95
:100DE800D4E92412531CC3F30A038B422CBF4FF4DB
:100DF80000600020C91A2244014415F8017F82F8D6
:100E0800B87F0129C4F894300DD101204AF0B2FF0F
:100E1800D4E924318B4294BF4FF4006200225B1A5C
:100E28001344012BF1D0B542DAD10020F8BD00BF40
:100E3800A81C002038B5FFF7B9FA00B938BD064D2F
:100E4800002A0C46D5F8B4381146F7DD2046FFF7DE
:100E5800BDFFD5F8B43838BDA81C002090F848105C
:100E6800002280F8482009B90120704710B50A4CC3
:100E7800D4F8983073B1D4F89830052B01D01046C7
:100E880010BD3430D4F8B438FFF7A0FFD4F8B43824
:100E9800012010BD184610BDA81C0020002280F8B3
:100EA8004920DBE790F84830C2180133DBB280F8FC
:100EB800483082F8341090F849200AB1132B00D931
:100EC800CCE7704708B5002108464BF0C3FB00206B
:100ED80008BD00BF2DE9F84FDDE90A458A4690466E
:100EE80000212022994606465BF0BDFF5CB1D4E99B
:100EF80000326189F381C3F30F433382C2F30F4396
:100F0800F28233837182504655F022FA18F0100F9E
:100F18001BD1431EC8B10AEB000401E0013B14D306
:100F280014F8017D2E2FF9D1A0EB030B0BF1FF3B39
:100F3800BBF1030FA8BF4FF0030B082B03F101040B
:100F4800A8BF082354441A4606E008280246544617
:100F5800A8BF08224FF0000B4FF0203373605146B2
:100F68003360C6F80730304606F108075BF090FD9D
:100F78005A46214638465BF08BFD711EF21D11F86A
:100F8800014FA4F16103192B9CBF203C0C708A42CD
:100F9800F5D106F10B0117F8013BA3F16102192AFB
:100FA8009CBF203B07F8013C8F42F4D11823C9F3BA
:100FB8000F4286F80B803373A6F81A90B282F56157
:100FC800BDE8F88F2DE9F04F002085B01E460C468D
:100FD800012115464BF03EFB002E5BD004EB462367
:100FE800CA4FDFF844A302931BE0002D63D07B694E
:100FF800AB4200F0D1803B69AB4200F00381D7E9F6
:101008000631AB424ED8A94200F2BC81691A20468B
:10101800FFF74CF9029B04F500749C4205F10105A9
:1010280038D03A6AAA42E0D83E6BA5EB02084FEAEC
:10103800D80B336B0BF1020B9B4508F0070802D362
:10104800B36B9B4508D931465846FFF7FFF806466B
:10105800002800F0B78138633379002B40F06681AF
:10106800D6F82890B9F1000F00F0A581336BF2682B
:10107800ABEB030B08EBCB0B3346204602EB4B22C2
:101088004FF40071C847029B04F500749C4205F1B7
:101098000105C6D1002108464BF0DCFA002005B056
:1010A800BDE8F08FA942B1D94FF400720021204663
:1010B8005BF0D9FEAEE74FF40072294620465BF09C
:1010C800D2FE80220C2384F8C23184F8BE213A690A
:1010D8008F4BB96884F8B8519A4284F8B95184F8AA
:1010E800BA5184F8BB5184F8BC5184F8BD51C4F896
:1010F800C621C4F8CA1100F34A81864B83FB020358
:10110800D6171344C6EB63138AFB02EC8248C6EB7E
:101118002C36C3EB831E80FB030CA2EB0E02B0102F
:1011280020F03F00013202439C44D817C0EBEC1C6E
:10113800634484F8C021764A84F8BF314B1E934239
:1011480084F8C16100F32F81724A734E82FB031247
:10115800D8171A44C0EB62128AFB03C1C0EB2130D6
:10116800C2EB82115B1A811086FB02C621F03F0197
:10117800013316440B43D117C1EBE616324484F809
:10118800C50184F8C43184F8C3215522AA2384F800
:10119800FE2184F8FF313DE75222612041230026D9
:1011A80022706270A070722284F8E70184F8E63138
:1011B800B86AE3704FF0FF3384F8E42184F8E5213E
:1011C800C4F8E80184F8EC3184F8ED3184F8EE31A4
:1011D80084F8EF314FF4F0723146201D5BF043FE86
:1011E80055226FF05503C4F8F061C4F8F461C4F8EF
:1011F800F86184F8FC6184F8FD6184F8FE2184F8C4
:10120800FF3107E74FF40072002120465BF02BFE08
:10121800424B434A03CBEB23C4F80300237002205C
:101228004FF0580C90264FF0080EF823A670207443
:10123800C4F8071084F801C084F80DE063753969B3
:10124800BB68D7F81CC02073591A21624FF0FF31D0
:1012580000233F26A1763E21A073E372E3736374F3
:10126800A374E3742375A375E3756376E3766377F4
:10127800A377E37726762177D7F8188084F82C00AF
:1012880003CA284EC4F84700C4F84B1003CEACEB91
:10129800080C9678C4F824C084F82830B2F800C046
:1012A80084F8293084F82A3084F82B3084F82D30DB
:1012B80084F82E3084F82F3084F8313084F83230B6
:1012C80084F8333001228023A4F84FC084F8516099
:1012D800C4F85200C4F8561084F8302084F840301E
:1012E8004FF0290C94260E200D215522AA2384F8AC
:1012F80046E084F842C084F8436084F8440084F8E7
:10130800451084F8FE2184F8FF3183E6A81C0020EC
:10131800FF03FB008320088281808080A84B060899
:10132800B44B0608C44B0608975545414FF4007264
:10133800002120465BF097FD336CB8F1000F4AD1CD
:10134800002B00F08D80336B544911222046CDE9E3
:101358000088FFF7BFFD336C1A6C04F12000002AE7
:1013680000F08E801B6B4E49CDE900881122FFF7F3
:10137800B1FD766C04F14008002E3FF44BAE4FF4FB
:10138800E0793CE0E91A2046FEF790FF42E6FF23A9
:10139800444A84F8BF3184F8C13184F8C0314B1E07
:1013A80093427FF7D1AEFF2384F8C33184F8C53167
:1013B80084F8C431E9E649464FF4007220465BF0F0
:1013C80052FD27E6231F04F5FE72374943F8041F30
:1013D8009342FAD11EE6002B0CBF01220222766C42
:1013E800C2EB0818002E3FF415AEB8F10108B66C30
:1013F800F8D1002E3FF40EAEA0464FF40079C14458
:1014080009F1200908F120084FF0000B03940CE0C3
:101418005EF81C1B336BCDE900EBFFF75BFDB66C88
:1014280008F12008D6B1C84518D03379B64606F178
:101438001C0C1122A8F12000002BE9D17279346923
:10144800336B3168019442F02102CDF800C0FFF7F8
:1014580041FDB66C08F12008002EE4D1039CD9E5C3
:10146800CDE900884346F96808222046FFF732FD97
:10147800766C04F120084FF4F079002EBFD1C9E54D
:10148800CDE90088434606491122FFF723FD766C13
:1014980004F14008002E7FF472AFBBE51C66060815
:1014A80050980608FF03FB00DEADBEEF10B5044CF4
:1014B80004480A46214653F069FE204610BD00BF85
:1014C80060340020D04B060810B5044C04480A4686
:1014D800214653F05BFE204610BD00BF603400205B
:1014E800E04B060810B5044C04480A46214653F060
:1014F8004DFE204610BD00BF60340020EC4B0608AE
:1015080010B5044C04480A46214653F03FFE2046D5
:1015180010BD00BF60340020F84B060810B5044C1D
:1015280004480A46214653F031FE204610BD00BF4C
:1015380060340020004C060810B5044C04480A46E4
:10154800214653F023FE204610BD00BF6035002021
:10155800084C060810B5044C04480A46214653F0C6
:1015680015FE204610BD00BF60350020184C060847
:1015780010B5044C04480A46214653F007FE20469D
:1015880010BD00BF60350020244C06080A4608B587
:10159800054920B9054853F0F9FD034808BD04483A
:1015A80053F0F4FD004808BD60350020384C0608AB
:1015B800504C060870B50F2300222F2102204BF053
:1015C800EFFF274CC4F88C00002846D000214BF0D0
:1015D800A1FF4FF47A704AF0CDFBD4F88C00037960
:1015E800022B30D0002211460A234BF0B7FE1D4DC6
:1015F8001D4ED4F88C301A79022A09D0D4F8B438A0
:10160800E3640122002384F85C2084F8503070BD24
:1016180093F9103003EB830306EB8303D86C4BF08C
:10162800ABFA0028EAD0013DE3D1D4F88C004CF0A5
:101638005DF994F85030C4F88C50013384F85C504C
:1016480084F8503070BD83689B07CBD500BF4069D4
:101658004AF0E4FFD4F88C00C4E784F85C0070BD5D
:10166800A81C0020A18601000000002038B5134CFA
:10167800D4F88C301A79022A00D038BD104D93F96D
:10168800103003EB830305EB8303D86C4BF074FA3B
:1016980030B100BFD4F88C301A79022AEFD038BDA7
:1016A800D4F88C301A79022AE7D19A689207E4D5DF
:1016B80000BF5869BDE838404AF0B0BFA81C0020F8
:1016C800000000202DE9F8431A4C94F85C60042EC1
:1016D8000546894690461F4608D0082E02D00020AD
:1016E800BDE8F883FFF758F80228F8D1D4F88C0041
:1016F8004BF0AEFA94F8523093B969021120FFF713
:1017080093F898B9D4F8B438C4F838900522C4E9E5
:101718001187E56384F85C20E3640120BDE8F88361
:1017280029461120FFF780F80028EBD0FFF79EFF2D
:10173800D5E700BFA81C00200B68144A30B4056820
:10174800CC682A402343D1E9054513432343D1E913
:1017580007242B4313434A6A4D6B234313438C6B73
:10176800CA6A2B43234343F40033036044690B6B79
:101778000D6924F0070413432343D1E9014243616F
:101788004560846030BCC260704700BF3F801CF079
:10179800F8B5B44CB44DB54BC4F8C4580225B44A96
:1017A800B44FB54EB54984F8C8584FF0A045C4F8B1
:1017B800CC58C4F8183905F51465A3F5DC63C4F8EA
:1017C800D028C4F8D87802F550726037C4F8146984
:1017D800C4F8DC186036A1F5A461C4F8E058C4F870
:1017E8008C39A5F5886503F5B073C4F81C29C4F8CD
:1017F800E478A2F5C462A7F58467C4F82069C4F840
:10180800D418A6F5C06601F5C071C4F85059C4F8DB
:101818006439C0359A4B9B48C4F85429C4F85879A0
:10182800C03207F52C67C4F85C69C4F8601906F57E
:10183800D55601F52A51C4F868594FF05025C4F817
:10184800C008C4F86C2900208F4AC4F89079C4F8FD
:101858009469C4F8981906F5C0460121C4F89C3962
:10186800C4F8A059A3F5485307F5C04704F50C651B
:10187800C4F8A429C4F8AC690246C4F8A8790E468D
:1018880084F8CB18C4F8CC3984F8D21984F8D40970
:1018980001462B46402083F81C21A3F8222101325F
:1018A800042AC3E9490183F81D6183F81F11C3F8AD
:1018B800301103F12803EED1002211462B464020B7
:1018C80083F87423A3F87A230132042AC3E9DF01D9
:1018D80083F8751383F87713C3F8881303F1280383
:1018E800EED14FF0A04369489A6822F001029A604D
:1018F800DA6842F04002DA6053F000FF94F8C93821
:101908000022212161F317420BB142F4801294F8AE
:10191800C318D4F8CC3801299A6307D19A6822F001
:101928003E0141F02A0161F307029A60DA68D4F8AF
:10193800CC69D4F8D008C2F3076121F0600141F006
:10194800400161F31F620021DA603160026861F3CF
:10195800CC22026094F8CB28012A10D101684C4AA5
:101968004C4E41F003010160802159629E62C3F828
:1019780004214FF4A072C3F80821C3F80C211021E8
:10198800454854F00DFA444854F0F0F9D4F8D068BA
:1019980094F8C13800204FF0FF3230617061B261B5
:1019A800F06143B305F114073C4A07EB83074FEA9C
:1019B800830E4FF0FF0C52F8043F19680029ACBFA2
:1019C80000214FF09041BA4219601861C3F808C06D
:1019D800F1D15035324A75440027FF2052F8043FB0
:1019E80019680029ACBF00214FF090419542196059
:1019F8001F619860F2D1336994F8C31843F4807377
:101A0800012933611ED0D4F8CC28264800294FF08C
:101A180000036FF080414FF0FF349361516108BFBC
:101A2800102354605161906143F47013916943F439
:101A3800605343F008030B439361936843F0010339
:101A48009360F8BDD4F8CC28174B33636FF080410E
:101A5800144800234FF0FF34936151615460516181
:101A68009061E1E7A02D002040004001200B0050CC
:101A78000008005000090050000B005020090050D9
:101A88000040005008040100006000506C3600203F
:101A9800C0008000800040006036002074360020BE
:101AA800B0360020000800800301810010B58021B5
:101AB800044653F091FB2046002153F08DFB20464D
:101AC800BDE8104053F040BE00F01F02400901235A
:101AD800032803FA02F304D0042807D002280AD006
:101AE8007047074A116C0B4313647047044A116B23
:101AF8000B4313637047024A516C0B43536470479E
:101B08000038024030B51F4B5021082283B083F8BB
:101B18004313C3F88820BFF34F8FBFF36F8F1A4D5D
:101B28001A4C2B6B43F001034FF4C0522B636946E8
:101B380040F202332046CDE9002354F04FFB636A9C
:101B480023F470436362636A43F420436362636A05
:101B580023F470236362636A43F4202363622C20B6
:101B68004AF038FA00214AF0A3FA6B6C084A43F4A9
:101B780080436B646B6B012143F080036B6351619D
:101B880003B030BD00E100E0003802400000024030
:101B9800003C01402DE9F041B14C94F8C73EC4F82F
:101BA800B40E82B088465A2B00F2B980DFE813F0F1
:101BB800CC00B700B700DC00B700B700B700B7002B
:101BC800B700B700B700B700B700B700B700B70055
:101BD800B700B7001D01B700B700B700B700B700DE
:101BE800B700B70041017400B700B7007400B70030
:101BF800B700B700B700B801B7006201B700B70077
:101C08007C00B700FB01B700B700B700B7005B0066
:101C1800B700B700B700B700B700B700B700B70004
:101C2800B700B700B700B700B700B700B700B700F4
:101C3800B700B700B700B700B700B700B700B700E4
:101C4800B700B700B700B700B700B700B700B700D4
:101C5800B700B700B700B700B700B700B700B700C4
:101C6800B700B700E40194F8C83E9B0700F14D8225
:101C7800B4F8CE3ED4F8C92ED4F8081F5BBA9BB28C
:101C880012BAD0188842C4F8143FC4F8102F03D9E8
:101C980053F062FA002854DB0020A4F8000F054630
:101CA800284602B0BDE8F08194F80C3F002B40F0C4
:101CB800FF8094F9C43E002B31DAD4F8FC3E084684
:101CC8009B689847002840F00482B4F8CE0ED4F8F8
:101CD800C92ED4F8083F40BA80B212BA15189D42EE
:101CE800C4F8140FC4F8102F07D953F035FA002898
:101CF80027DBD4F8102FD4F8140FD4F8043FD4F805
:101D0800C06E00FB03F002FB03F20225B042C4F8E8
:101D1800102FC4F8140F84F80C5F00F0CF8094F8EB
:101D2800D83E5A1CD2B204EBC30305204FF400512D
:101D3800042A84F8D82E83F8DC0EC3F8E01E00F0DD
:101D480092814FF0FF35ABE7D4F8C03E002BE6D1C7
:101D5800D4F8FC3E08469B6898470546002840F0A2
:101D6800B881A4F8000F9BE73E4B002203F1120153
:101D780003F8012F8B42FBD13B4994F8023F94F8BA
:101D8800D80E70250D7098424FF00C05CD7110D00B
:101D980004EBC300013390F8DC5E8D70B0F8E00E00
:101DA800DBB2042B40BA888114BF84F8023F84F860
:101DB800022F94F8CB3E12229342A4F8002F0FD89A
:101DC800A4F8003F00256BE7B5F5805F28BF4FF406
:101DD8008055D4F8B40E244AABB2012153F0F4FA7A
:101DE8000025284602B0BDE8F08194F8C83EDA071D
:101DF80000F12281D4F8FC3E94F8CB0EDA6901EBAD
:101E0800C10102EB81010A79531D834228BF0346B1
:101E1800A4F8003F002BE3D0013B13489BB20133E9
:101E28001944034411F8012D03F8012D8342F9D117
:101E3800D6E70E480E4E014608230738C1F10705BC
:101E4800A4F8003F002201E0127A19460B468142AD
:101E580003F8012905EB030216FA82F2F4D1BFE771
:101E6800A02D00203B6500203C6500204365002034
:101E7800C0CF0508D4F8FC3EBA4A5B680846111D75
:101E880098470546002840F02481D4F8083FB64A10
:101E9800D4F8041F013B180E1070180C09BAD3703F
:101EA80050701B0A082093705160A4F8000FF7E6E1
:101EB800D4F8146FD4F8102FD4F8043FD4F8FC5E8B
:101EC800B2FBF3F24FF48057BE4228BF3E462D695D
:101ED800A549A4F8007F4046B6FBF3F39BB2A84798
:101EE8000028C0F2AE8033469F4AD4F8B40E812150
:101EF80053F0A6F9D4F8102FD4F8140FD4F8203FD3
:101F08003244851B9E1BC4F8102FC4F8145FC4F814
:101F1800206F002D7FF464AF032384F80C3FBFE6E5
:101F2800914F00263B4607F10C0203F8016B9A42D9
:101F3800FBD1D4F8FC3E40465B686A4601A9984745
:101F48000546002840F0CF80019BBDF80020013BEA
:101F5800190E52BAFB713971190C1B0A79710820D4
:101F6800BB7102217A810C23BDF80220F870397206
:101F78007A72A4F8003F93E67C487D4E0146082318
:101F88000738C1F10705A4F8003F002201E0127CE0
:101F980019460B46884203F8012905EB030216FA95
:101FA80082F2F4D11CE794F80C3F002B61D194F92C
:101FB800C43E002BFFF6B3AED4F8FC3E08469B683F
:101FC8009847002840F08580D4F8FC3E4046DB68FE
:101FD80098470546002840F0AC80B4F8CE3ED4F8C7
:101FE800C92ED4F8080F5BBA99B212BA53188342B3
:101FF800C4F8141FC4F8102F00F29180D4F8043FDD
:10200800D4F8C00E03FB02F203FB01F38342C4F8C9
:10201800102FC4F8143F7FF482AEB3F5805F28BF59
:102028004FF480530121D4F8B40E4F4A84F80C1FA2
:102038009BB253F0C9F933E607234D49A4F8003F92
:10204800EAE694F8D83E5A1CD2B204EBC303042043
:102058004FF48851824284F8D82E83F8DC0EC3F8F6
:10206800E01E7FF46EAE002384F8D83E4FF0FF35B3
:1020780016E6D4F8146FD4F8FC0ED4F8043FD4F85C
:10208800102F4569B2FBF3F2B6F5805F28BF4FF415
:1020980080560846B6FBF3F333499BB2A84700289D
:1020A80056DBD4F8102FD4F8145FD4F8203F32440C
:1020B800AD1B9B1BC4F8102FC4F8145FC4F8203F55
:1020C800002D7FF481AED4F8B40E294653F0D0F930
:1020D800E6E594F8D83E5A1CD2B204EBC3030220BA
:1020E8004FF4685124E694F8D83E04EBC302013358
:1020F800DBB202204FF46851042B82F8DC0EC2F8E0
:10210800E01E20D084F8D83E1BE694F8D83E5A1C2E
:10211800D2B204EBC30305204FF4105108E653F084
:102128001BF80028FFF60DAED4F8102FD4F8141FB2
:1021380064E794F8D83E5A1CD2B204EBC3030220D9
:102148004FF41C51F4E584F8D86E4FF0FF35A7E53D
:1021580094F8D83E5A1CD2B204EBC30304204FF4BF
:10216800407177E7A43C00203C65002043650020CF
:10217800C0CF05082DE9F041804684B008461646D0
:1021880050F014FE4FF47A72002304460D4654F0C2
:10219800D1FEB6F900C00746294620464FF47A72A8
:1021A8003C2400230CFB047754F0C4FE002594B2B1
:1021B8004FF47A73C3FB07452B46224601A850F01B
:1021C8003FFD404B93F82A3F012B2FD0022B10D113
:1021D8009DF80670FB1E082B0BD83B1F062B1BD93E
:1021E800BDF80400394650F0C1FC032F36D00B2F40
:1021F80041D022462B46404650F022FD04B0BDE8AF
:10220800F081032F55D00A2FF3D19DF80870B7FA43
:1022180087F77F09002FECD033882B4A3C33A4186A
:102228004FF00002338042EB0505E2E79DF80670A7
:10223800FB1E072BDDD83B1F052BEDD9BDF804008D
:10224800394650F093FC9DF807309842D9D0033FA7
:1022580018BF0127002FDFD1CBE707380E28FCDC99
:102268009DF80730834212D0CCBF01270027002FEA
:10227800D2D1BEE707380728FCDC9DF80730834237
:102288000ED0B4BF01270027002FC5D1B1E79DF8B4
:102298000870012F94BF00270127002FBCD1A8E7A1
:1022A8009DF80870012F8CBF00270127002FB3D19C
:1022B8009FE79DF80870003F18BF0127002FABD19A
:1022C80097E700BFA02D002080EE3600804BB3FBBF
:1022D800F2F399420DD300234FF07E52436083609E
:1022E800C360036102600023836143610362C361C9
:1022F800704707EE902A9FED777AF8EE676A07EE47
:10230800901A66EE876AF8EE677A66EEA76AFDEEBF
:10231800E67A17EE903A2033402B00F2CA80DFEDC0
:102328006E7AF4EEE76AF1EE10FAF0EE667A0CDDFA
:10233800DFED6A5A9FED6A6AB0EE677AB4EEC67A44
:10234800F1EE10FA77EEE57AF6DC9FED667AF4EEB8
:10235800C77AF1EE10FA0CD5DFED605A9FED626A8C
:10236800B0EE677AB4EEC67AF1EE10FA77EEA57A97
:10237800F6D49FED5E7AF4EEC77AF1EE10FA00F328
:1023880090809FED5B7AF4EEC77AF1EE10FA44BFC5
:102398009FED547A77EE677A27EEA76ADFED554A04
:1023A8009FED557A9FED555ADFED555AA6EE247AE2
:1023B80067EE864AA6EE075AB6EE007AE6EE055AAA
:1023C800E4EEA57A27EE877A9FED486A76EE867A5C
:1023D800FDEEE75A15EE903A2033402B66D8F4EE1E
:1023E800C66AF1EE10FA0CDDDFED3C5A9FED3C6A4F
:1023F800F0EE676AF4EEC66AF1EE10FA77EEE57A67
:10240800F6DCDFED386AF4EEE67AF1EE10FA0CD578
:10241800DFED325A9FED346AF0EE676AF4EEC66A71
:10242800F1EE10FA77EEA57AF6D4DFED306AF4EE25
:10243800E67AF1EE10FA3FDDDFED276A76EEE77A0D
:1024480067EEA76ADFED2B4A9FED2B5ADFED2B5A7B
:102458009FED2B6AA6EEA45A67EEA64AE6EE855AC9
:10246800B8EE005AA6EEA56AE4EE867A67EE857A9B
:10247800C7EE006AB7EE006A76EE865A76EE666AAE
:1024880086EE257A67EE277A66EE876AC0ED017ACE
:10249800C0ED037A80ED007A80ED027AC0ED046A1F
:1024A80021E79FED0D7A77EE677A75E7DFED157A0C
:1024B800DEE79FED147A87E7DFED0D6AF4EEE67A42
:1024C800F1EE10FA44BFDFED076A76EEE77AB7E778
:1024D80020A1070027D4D236DB0F4940DB0FC940C3
:1024E800E4CB1641DB0F49C0E4CB16C1DB0FC93F73
:1024F800DB0FC9BF9A7C2E36FAAF4FB93587083C37
:10250800A4AA2ABE000000000023024A4260036019
:102518008360704783F9223E034A044B42600021DE
:1025280001608360704700BF5B128B3A6F12033BF8
:10253800034B6428B8BF6420C3F85404704700BF35
:1025480000000020034B64281B68B8BF6420D860D3
:10255800704700BF000000102DE9F04790B0DDE99A
:10256800184A0E460746904601A83C220021994683
:102578001A9D5AF078FC2F4B8DF80460CDF834A0E2
:102588000293002E51D0B31E012B50D9042E14BF34
:1025980000220322284B0394D3F8B4388DF8052081
:1025A8001C440123CDE9055704948DF83130B8F166
:1025B800000F06D04A46414607A85AF069FA8DF836
:1025C8003090DFF878E09EF86EAF0023BAF1010F83
:1025D8000E931CD801AC0FCC9EF86DCFCCEB0C152C
:1025E8000EEB850505F577650FC50FCC0FC50FCC2C
:1025F8000FC594E80700BCFA8CFC0AF1010A4FEAFF
:102608005C1C85E807008EF86EAF8EF86DCF3B68CE
:1026180043B14B4642463146384610B0BDE8F04714
:102628002EF016BA10B0BDE8F0870522B2E70222F4
:10263800B0E700BFCC3C0020A81C0020A02D002043
:1026480030B403681A6853797BB159B2002920DB8A
:10265800174C0120651803F01F03490900FA03F31A
:10266800302085F8000344F8213093797BB15AB2C1
:10267800002A15DB0E480121841803F01F035209B4
:1026880001FA03F3302184F8001340F8223030BCFB
:102698007047084903F00F03194430230B76E4E729
:1026A800044A03F00F031A443023137630BC7047F2
:1026B80000E100E0FCEC00E070B50B46ADF5815D93
:1026C800014614460DF581501A460023CDE9010351
:1026D80004AD6846FD260393ADF80860009550F0F8
:1026E80027FC009B019320466946022200952DF0A5
:1026F8006FFE0DF5815D70BD2DE9F047041E0D4696
:1027080012DB092C26DC824A0B468248A0FB041007
:10271800C00800EB8000A4EB40000021125C1A7096
:1027280059702846BDE8F08764422D23092C01F82A
:10273800013B24D8764A774BA3FB0403DB0803EB61
:102748008303A4EB43030020D35C48700B70284636
:10275800BDE8F0876F4B632CA3FB04264FEAD6062F
:1027680021DC6B4A0B466B49A1FB0601C90801EB4A
:102778008101A6EB4101515C03F8011BC5E7654ADD
:10278800632CA2FB04364FEAD60637D8604A614B61
:10279800A3FB0603DB0803EB8303A6EB4303D35C2D
:1027A80001F8013BC7E7A3FB0627B4F57A7F4FEA98
:1027B800D7070DD2564A0B465649A1FB0701C9084F
:1027C80001EB8101A7EB4101515C03F8011BCAE74A
:1027D800A3FB072842F20F7294424FEAD80836D872
:1027E8004B4A0B464B49A1FB0801C90801EB810183
:1027F800A8EB4101515C03F8011BDDE7A2FB06379A
:10280800B4F57A7F4FEAD7070CD2414A414BA3FB74
:102818000703DB0803EB8303A7EB4303D35C01F84F
:10282800013BB4E7A2FB073842F20F739C424FEA20
:10283800D80821D8364A374BA3FB0803DB0803EB3B
:102848008303A8EB4303D35C01F8013BDEE7324A7C
:10285800A3FB080994424FEAD90921D82C4A0B4610
:102868002C49A1FB0901C90801EB8101A9EB410130
:10287800515C03F8011BB5E7274BA2FB08099C42F2
:102888004FEAD90921D8224A224BA3FB0903DB08C6
:1028980003EB8303A9EB4303D35C01F8013BCAE7CD
:1028A8001E4AA3FB090394424FEAD30A21D80B46D8
:1028B8001849174AA1FB0A01C90801EB8101AAEBD3
:1028C8004101515C03F8011BCAE7144BA2FB090242
:1028D8009C424FEAD20A13D80E4B0D4AA3FB0A03B7
:1028E800DB0803EB8303AAEB4303D35C01F8013B4A
:1028F800CAE70A22BAFBF2F050F076F80346D7E7A7
:102908000A22BAFBF2F050F06FF80146E4E700BF84
:10291800684C0608CDCCCCCC9F8601003F420F0006
:102928002DE9F04788B0541C03941478002C00F06B
:1029380040810025074688461E46A9460BE0791CBB
:1029480002D021463846C047039A0135531C0393E9
:102958001478002C58D0252CF1D1931CCDE90339DB
:1029680050782D2800F0C8804FF0000A302800F079
:10297800AB80A0F13003DBB2092B4FF0000440F22A
:10298800AF806C284ED0782838D8572840D9A0F185
:102998005803202B32D8DFE813F0F400310031005F
:1029A8003100310031003100310031003100310097
:1029B800DA0000013100C10031003100310031007E
:1029C800310031003100E3003100310031003100C5
:1029D800BB003100210031003100F40056F8040B2F
:1029E80005A9FDF7CDFB05ABCDE90043049B4246A5
:1029F8004FF0FF31384650F077FB0544039A531CDB
:102A080003931478002CA6D1284608B0BDE8F087B7
:102A18000028F9D02528F1D17B1C95D025213846EE
:102A2800C04791E7039B5A1C0392197878298DD8DF
:102A3800572967D9A1F15803202B87D801A050F84E
:102A480023F000BF732B00085529000855290008FA
:102A58005529000855290008552900085529000856
:102A68005529000855290008552900085529000846
:102A7800572B0008AF2B000855290008252B000804
:102A88005529000855290008552900085529000826
:102A98005529000855290008552900086B2B0008FE
:102AA8005529000855290008552900085529000806
:102AB800192B000855290008E529000855290008A0
:102AC80055290008732B0008039B5A1C0392187899
:102AD800A0F13003DBB2092B4FF001043FF651AFF0
:102AE80004AA03A9FDF78EFBBAF1000F3FF449AF22
:102AF800049B5B42049344E7D31C039390784FF004
:102B0800010A33E700293FF47FAF252984D01DE768
:102B180056F8042B049BCDE9009268E7073626F0A7
:102B28000706F6E8020154F087F800EE100A05A837
:102B38004FF0F0FE05ABCDE900434246049B4FF051
:102B4800FF31384650F0D0FA039A0544FEE67A1C65
:102B58003FF4FAAE56F8041B3846C9B2C047F3E64C
:102B6800039A56F8043B1D60F0E6A1F15802B2FA48
:102B780082F256F8040B520905AB10214FF090FF72
:102B880031E7A0F15802B2FA82F256F8040B520962
:102B980005AB10214FF084FF25E756F8040B05A973
:102BA8004FF03AFF1FE756F8040B05A94FF034FF22
:102BB80019E7254628E700BF10B40C4C132122461C
:102BC800002303E001330B2B0BD01179884202F16B
:102BD8001402F7D103EB830304EB83005DF8044B85
:102BE800704700205DF8044B704700BFD8CF050838
:102BF8002DE9F04781466848D9F804C0BCF8103080
:102C08000F46904690B04FEAD31E1A0900F5F561B9
:102C180000256E0101358B5B8EEAD31482EA13130B
:102C280004F0030403F00703234308D0102DF0D168
:102C38000023C9F80C30184610B0BDE8F087851994
:102C4800881995F8C417DCF80020C9F80C00002989
:102C5800F1D1B2F84430514C6FEA43436FEA534321
:102C68009BB2A2F8443013889BB243F080031380D0
:102C78009CF80530118C23444FF0010A93F8F43086
:102C88000AFA03F39BB289B221EA03011184118C79
:102C980089B20B43138413889BB243EA0A03138057
:102CA80008F06CF9D9F80C600A23A5F8C437304647
:102CB80008F064F996F91430394AC6F81890002BD0
:102CC800F26060DB374903F01F02C8185B09302542
:102CD8000AFA02F280F8005341F82320D9F80C30A0
:102CE800986853F085F9D9F80C309868036823F090
:102CF8000103036053F07CF90023CDE90C33CDE9DF
:102D08000E33D9F8042006930A935379032B41D83C
:102D1800DFE803F03633300213684033128A029337
:102D280002F00F0304EB8304D9F80C20D4F8F83030
:102D3800906801934FF4806140224FF4003307916B
:102D48004FF480454FF4805401A904920B93CDE9C8
:102D58000845CDF814800397FEF7EEFCD9F80C303F
:102D68009A68136843F0100313600123184610B0E3
:102D7800BDE8F08713683C33D0E713683833CDE7F4
:102D880013683433CAE7084A03F00F031A443023A0
:102D98001376A3E70023C1E700000020C0CF050891
:102DA8006D7E000800E100E0FCEC00E00023036019
:102DB800704700BF324B334A3349344870B503F586
:102DC800805441F2040522605A5141F20C0441F248
:102DD80008051A515A512E4CC3F8EC2F1225C3F886
:102DE800F02FC3F8F42FC3F8F82FC3F8FC2F03F61D
:102DF800EC76284AC1F82C0F84B001F5716381F88C
:102E0800105FC1F8304F002542F6F8244020C3E98E
:102E18000245C1F83C6FC1F8342F2FF029FE28B3C2
:102E28001D4C90F9040014F8E13C14F8E21C1B4A0C
:102E3800002B14BF08230023002918BF43F0010307
:102E480003254FF4E131CDE90153009100234021DE
:102E58002FF026FD44F8C00C28B114F8BC3C3BB157
:102E6800002304F8B43C003818BF012004B070BD3A
:102E78000B4B44F8B83C022304F8BC3C0123F0E7B0
:102E8800A02D0020E003E003A81C002055900208B4
:102E980079A30208B1AD0208983E00203DA80208B7
:102EA800D9930208F0B5234B234A244CC3F82C2F9E
:102EB800112003F57162224D83F8100F41F60B269D
:102EC8000027C2E9026785B04FF478724FF4787131
:102ED800C3F8305F40204FF4787344E92C2344E969
:102EE8002A2344E9282344E9262344E9242344E9FE
:102EF800222344E9202344E91E2344F8701C2FF0C0
:102F0800B7FDA8B114F8E13C0E4A90F9040000920C
:102F1800002B18BF08230322CDE9012340210A4AC8
:102F280000232FF0BDFC44F86C0C003818BF0120BA
:102F380005B0F0BDA81C002085940208983E00202A
:102F4800A5940208A0680600D5A902080348044A07
:102F5800A0F1E101E238FDF7CFBE00BF983E0020A6
:102F6800400D03000348044AA0F1E101E238FDF7EF
:102F7800C3BE00BF983E0020A086010070B40D4B70
:102F88000D4CA34203D311E00C33A3420ED25A795D
:102F98008242F9D1DA798A42F6D11A681E7915790E
:102FA800AE42F1D115689D42EED100E000221046F4
:102FB80070BC704738AC0608ACAD060870B50D4E4D
:102FC80082B0052400250A2048F0D4FE56F8680C83
:102FD8008DF807500DF10702002149F047FE18B19E
:102FE8009DF80730482B02D0013CECD1204602B0B6
:102FF80070BD00BF983E0020642828BF64201C4B89
:1030080000EB800070B54500A3FB05235E095B0952
:1030180018BF002422D001349F2022F0E3F9E3B244
:103028009E42F8D80A2E00D170BD1248A0FB053088
:103038000009C6EB8613C6EB830366381844C0B292
:1030480022F0D0F9092E06F10104EDD001349A20BE
:10305800E4B222F0C7F90A2CF8D170BD0548A0FBEC
:10306800053000096638C0B222F0BCF90124EDE74A
:103078001F85EB51CDCCCCCC002170B5084649F06A
:10308800E9FA0021012049F0E5FA104B104D01241E
:103098004FF40676184601211BB1DE801C7249F0F8
:1030A80007F8032C08D055F82430012101341846BC
:1030B800002BF2D1032CF6D10021084649F0CAFAB8
:1030C800BDE870400021012049F0C4BA98260020CC
:1030D800D8D00508F0B41A4E16F8203C072B2DD886
:1030E8000C2404FB03640133183CDBB254F8042CB1
:1030F800D1070ED502420CD094F900701149002274
:1031080091F90050BD4201F10C010ED00132082A9C
:10311800F6D10133DBB2092B04F10C04E6D1082304
:1031280006F8203C0020F0BC704702EB420206EB98
:10313800820206F8203CD06CF0BC70470020F2E711
:10314800983E0020E03E0020D0ED017AF5EE407A6E
:10315800F1EE10FA05D19FED0B7AF0EE477A80ED8B
:10316800017A30EEA77AD0ED007AC0ED020AC0EEFF
:10317800876A30EE670AE6EE807AB0EE670AC0ED3D
:10318800007A704783F9223EBCEEC00A7F4AB2FB40
:10319800F1F210EE103A9BB2934208D300234FF09D
:1031A8007E5243608360C36003610260704707EE2C
:1031B800901A9FED777AF8EE676A07EE903A66EE16
:1031C800876AF8EE677A66EEA76AFDEEE67A17EE8A
:1031D800903A2033402B00F2CA80DFED6E7AF4EE8D
:1031E800E76AF1EE10FAF0EE667A0CDDDFED6A5A66
:1031F8009FED6A6AB0EE677AB4EEC67AF1EE10FA1D
:1032080077EEE57AF6DC9FED667AF4EEC77AF1EEB2
:1032180010FA0CD5DFED605A9FED626AB0EE677A5E
:10322800B4EEC67AF1EE10FA77EEA57AF6D49FEDF1
:103238005E7AF4EEC77AF1EE10FA00F390809FED13
:103248005B7AF4EEC77AF1EE10FA44BF9FED547A38
:1032580077EE677A27EEA76ADFED554A9FED557A34
:103268009FED555ADFED555AA6EE247A67EE864A49
:10327800A6EE075AB6EE007AE6EE055AE4EEA57A0F
:1032880027EE877A9FED486A76EE867AFDEEE75A52
:1032980015EE903A2033402B66D8F4EEC66AF1EE6C
:1032A80010FA0CDDDFED3C5A9FED3C6AF0EE676AE0
:1032B800F4EEC66AF1EE10FA77EEE57AF6DCDFEDA9
:1032C800386AF4EEE67AF1EE10FA0CD5DFED325AF0
:1032D8009FED346AF0EE676AF4EEC66AF1EE10FA12
:1032E80077EEA57AF6D4DFED306AF4EEE67AF1EE01
:1032F80010FA3FDDDFED276A76EEE77A67EEA76A18
:10330800DFED2B4A9FED2B5ADFED2B5A9FED2B6AF1
:10331800A6EEA45A67EEA64AE6EE855AB8EE005A1B
:10332800A6EEA56AE4EE867A67EE857AC7EE206A8D
:10333800B7EE006A76EE865A76EE666A86EE257AEB
:1033480067EE277A66EE876AC0ED017AC0ED037AE8
:1033580080ED007A80ED027AC0ED046A70479FED37
:103368000D7A77EE677A75E7DFED157ADEE79FED80
:10337800147A87E7DFED0D6AF4EEE67AF1EE10FADB
:1033880044BFDFED076A76EEE77AB7E720A10700CA
:1033980027D4D236DB0F4940DB0FC940E4CB1641B6
:1033A800DB0F49C0E4CB16C1DB0FC93FDB0FC9BF38
:1033B8009A7C2E36FAAF4FB93587083CA4AA2ABEA4
:1033C8000000000070B4334890F8A830A3F1300131
:1033D800092956D800F1A8042246B73012F8015F2F
:1033E800A5F13001092904D88242F7D1002070BC28
:1033F8007047141B022C4ADD2748002101E010F811
:10340800013B01EB810103EB4103161A303B022E0D
:10341800044603F0FF01F2DC204B03FB01F1A2425A
:103428004FF000030DD903EB830314F8016B5B0025
:10343800303B3344A24203F0FF03F4D1184800FBA9
:1034480003F32E2D06D01748A0FB032301EB9300AE
:1034580070BC7047013204200024157804EB840402
:10346800303D6400092D00F1FF30A4B202D82C448D
:10347800A4B2013210F0FF00EFD1642202FB043342
:10348800E1E700211D4600F1A8020B46D9E7064CEA
:103498000021C4E7983E0020413F00208096980014
:1034A80040420F00ABAAAAAA403F0020064B93F85F
:1034B800C91003F5657203F55F73002918BF134639
:1034C80093ED050A704700BF983E0020064B93F81D
:1034D800C91003F5657203F55F73002918BF134619
:1034E80093ED020A704700BF983E00209B1A00FB2C
:1034F80003F090FBF1F01044704700BF094BD3F87C
:103508002C0AD3F8302AD3F8343A824202DB114627
:1035180002460846984204DD9A42B8BF1A46104649
:1035280070477047983E002030B4144AD2F8380AE1
:10353800D2F83C3AD2F8404AD2F8441AD2F8482A8B
:10354800834202DB1D46034628468A4202DB1546B3
:103558000A4629468842A8BF08469342B8BF134680
:10356800A04202DC224604461046834203DAA34204
:10357800B8BF2346184630BC704700BF983E0020AD
:103588000B6810B414681B1B036054684B681B1B42
:1035980043608B6892685DF8044B9B1A83607047A0
:1035A80030B50468E46985B02CB10DF10F050095BC
:1035B800A04705B030BD204605B030BD38B50A4C2F
:1035C8000A4D2321D5F84C0A4AF00CFA14F8011FC9
:1035D8000029F7D106484CF0D7FF95F8503A13B1B7
:1035E800012385F8513A38BD904C0608983E0020D2
:1035F8009C4C06082DE9F04F89B0CDE90621DFF88B
:10360800B080074699460026069B002B07DBB3428D
:1036180005D00136042EF7D109B0BDE8F08FD823C4
:1036280003FB06FB079B03EB0B0A204B00249B4480
:10363800B9F1000F33464246384601DBA14530D187
:103648003BF814503AF81410009415F4006FA1EBED
:10365800050114BF4FF0560E4FF0480E05F01F0C31
:10366800B1FA81F1C5F344154909CDE901C5CDF891
:103678000CE005914BF0DAFA3AF814300599009409
:1036880013F4006F03F01F0214BF56204820C3F341
:103698004413CDE9012303903346424638464BF0A4
:1036A800E1FA01346C2CC3D1B3E700BFEC48002029
:1036B800AC4C06082DE9F04F3B4C3C4B94F8F859BC
:1036C8003B4ADFF8F4808946002D08BF1A4694F972
:1036D800F9198BB0074637484AF0DCFE04F58B64CD
:1036E8004D460026B9F1000F3ED022782B789A4239
:1036F8006A683BD0D5E902CE0021A87D0790B5F9CC
:1037080014000690B5F912000590B5F91000009361
:10371800CDE903E0CDE9012C33464246384609910C
:103728004BF084FA0999A37D6268B4F914B0B4F92E
:1037380012A0B4F910E0D4E9020C079314F8183B6E
:103748000093CDE901203346CDE905ABCDE903CEA1
:103758004246013638464BF085FA3C2E05F11805ED
:10376800C0D10BB0BDE8F08F4946DCE76168D5F8F9
:1037780008C0914202D0D5F80CE0BDE7A168D5F8A1
:103788000CE06145B8D1E1687145B5D12069296976
:103798008842B1D16069696920F07F4021F07F419A
:1037A8008842A9D10121A8E7983E0020C84C060804
:1037B80080510608CC4C0608DC4C060870B51D4E36
:1037C80096F8E4332DED028B04460D465BB3D6E93B
:1037D800FB12D6F8F43396EDFA8A8360C0E900123A
:1037E800DFED158A95ED000A80EE280A56F0E8F814
:1037F80023681844206028EE288A95ED010A80EE97
:10380800080A56F0DDF863681844606095ED020A0E
:1038180056F0D6F8BDEC028BA3680246134496F81E
:10382800E403A36070BDC0E900338360B7EE008A8B
:10383800D6E700BF983E00202C7D8E3F204BF0B489
:1038480093F8E44334B9002303604360836020465F
:10385800F0BC70470D68D3F8EC73D3F8F063D3ED80
:10386800FA6A9FED186AED1B07EE105A4D68AD1BFA
:1038780007EE905AB8EEC77A66EE866AF8EEE77AEF
:1038880027EE067A67EEA67A012A80ED007AC0ED67
:10389800017A0CD08A68D3F8F433D21A07EE902A4A
:1038A800F8EEE77AC0ED027A2046F0BC7047D1ED19
:1038B800027AF8EEE77AC0ED027A2046F0BC70474B
:1038C800983E00202C7D8E3F1D4A2DE970035468D8
:1038D8001C4E002CD6F8483403600EDD0832002355
:1038E80006F5896501E09C4207D052F8041BA942FD
:1038F80003F10103F7D1012200E00022D6F8543485
:1039080083600271104A96F8583443711346F3E8FD
:103918000289D3E90045D6F8783452F8042CD6F851
:10392800701481625B0943EAC2635209C0E90489E1
:10393800C0E90645C0E90832BDE87003704700BF1A
:103948000000001000000020800400200C4608B58C
:1039580005462EF07BFF20462EF078FF0021084612
:1039680048F078FE0021012048F074FE284648F00F
:10397800EDFAC0B9204648F0E9FA0028F6D001214E
:10398800002048F067FE204648F0D8FA014628464D
:1039980048F002FB0021084648F05CFE284648F043
:1039A800D5FA0028E6D00121002048F053FE284629
:1039B80048F0C4FA0146204648F0EEFA00210846CD
:1039C80048F048FED6E700BFF0B500230B604B6017
:1039D8008B60CB600B610268DFF88CC089B004ADE6
:1039E800C2F385572E4647FA03F0C007344604D57C
:1039F80013F80C0004F8010B26460133062BF2D10C
:103A08001748C2F303240444002394F82C4133706C
:103A18008DF8184000F59A7CC2F305370DF11906A8
:103A280047FA03F0C007344604D513F80C0004F82D
:103A3800010B26460133062BF2D100233370C2F363
:103A4800834406ABCDE90134084602F00F0305496B
:103A58000095C2F303124FF097FA09B0F0BD00BF0A
:103A6800C0CF0508FC4C0608E4D00508014BD3F884
:103A7800C800704700000020014BD3F85801704778
:103A880000000020014BD3F810017047000000200F
:103A980010B4414A92F89130906F023BD2E91C145D
:103AA800062B74D8DFE803F05A5C60500655040012
:103AB80064424942404280EAE073A3EBE07306EEB9
:103AC800903A84EAE473A3EBE47307EE103AF8EE55
:103AD800E66A9FED326AB8EEC77A26EE866A81EA10
:103AE800E173A3EBE17307EE903AB4EEC76AF1EE27
:103AF80010FAF8EEE77A04DDB4EEE76AF1EE10FAB0
:103B080034DC9FED266A27EE066AB4EEE76AF1EE2A
:103B180010FA04DDF4EEC66AF1EE10FA2DD49FED2A
:103B28001F6A67EE867AB4EEE77AF1EE10FA2BD5C3
:103B3800F4EEE76AF1EE10FA26D50029CCBF04208E
:103B480005205DF8044B70474B42404221461C4615
:103B5800B1E7634240420C461946ACE74942AAE73E
:103B68004B4261421C46A6E76442A4E70028CCBF4A
:103B7800002001205DF8044B7047002CCCBF0220C8
:103B880003205DF8044B70474FF0FF30D9E7234618
:103B98000C4619468FE700BF00000010ABAA2A3F69
:103BA80070B5284CDFED286A14F8D43C94F8FC2D45
:103BB800D4F8205E07EE103A14F8D33C07EE903A9A
:103BC800B8EEC77AF8EEE77A27EE267A67EEA67A95
:103BD80004EB4206BDEEC77A0132FDEEE77A02F049
:103BE8000F01B6F8003E84F8FC1D17EE102A17EEF8
:103BF800901AC31A2B448A42C4F8203E82B0A6F811
:103C0800000E4FEA131312DC17EE101A17EE902A63
:103C180098B240F2FF350023009550F0A3F92A46E8
:103C2800002150F0C1F9A4F8240E02B070BD9BB277
:103C38009942D4BF581A00208242A6BF101A80B2F7
:103C48000020E6E7983E002014AE23412DE9F04F0E
:103C58002DED108B034693B004331193DFEDC1AA09
:103C6800109002230F928B460E938946109C4FEAC0
:103C7800DB0504EB451202EB0511A5EB85034FEAC2
:103C8800C5084FEA051E05EB850A009101EBC30341
:103C980008F104000EF104012E46204405EB450509
:103CA80021444FEACA040D9602942C01C6EBC60CB7
:103CB8000394EC000D9D04944FEACC0405946C0128
:103CC8000194119D009C03EB46174FEACB0A02EBC7
:103CD800C6064FF0000C55ED011A11ED012AD6ED7C
:103CE800005AD7ED004A92ED003AD4ED003A10EDB3
:103CF800015A93ED004A72EE238A34EE248A71EE5B
:103D0800836A35EE257A36EEA86A77EE087A35EEBC
:103D1800655A76EE275A36EE676A45ED015A82ED06
:103D2800006A90ED00AAD6ED012A93ED016AD7ED5D
:103D3800019A94ED010AD1ED005AD5ED007A92ED81
:103D4800019A34EE644A76EE690A7AEE624A35EEF2
:103D5800C01A31EEC33A72EE633A34EEA02A77EE17
:103D6800C91A74EEE04A75EE805A75EE440AB0EE50
:103D7800410A35EE045AA2EE2A0ADC44E145A2EED5
:103D88006A1AB0EE434AB0EE432AA0EEAA2AA0EE81
:103D9800EA4AB0EE613AF0EE610AE4EEAA0AA4EE4D
:103DA800EA3AF0EE634AE5EE6A3AE5EE2A4A7AEE36
:103DB800222A36EE296A77EE897A72EE861A37EE6B
:103DC800487A32EEC66A76EEE86AB0EE635A77EE63
:103DD800A53A77EEE57A73EEA18A36EE868A73EE17
:103DE800E13A76EEC66A77EEC71A72EE002A77EEE7
:103DF800277A74EE015A30EEE46A33EE457A32EEF1
:103E0800402A34EE414A74EEA04A35EE035AC5ED15
:103E1800008AC2ED013A554401ED018A5244C4EDCD
:103E2800006AC1ED001AC4ED017A514440ED012A3F
:103E3800544487ED002AC6ED005A83ED004A80ED10
:103E4800006AC7ED014A504486ED017A574483ED74
:103E5800015A564453443FF63EAF0D9B072B40F2A0
:103E6800A3810198109D059B049A0399029C083030
:103E7800281808330A902846C31808328218059370
:103E8800034608F108080EF10C0E0C33083408310B
:103E980006920246454472440419411804934B465D
:103EA8000995D1460894079103924FF001084FF005
:103EB800000E9A460E9B9E440F9B03EBCE0303EB2A
:103EC800CE0202EBCE0000EBCE0404EBCE0505EBF0
:103ED800CE060C9306EBCE07AEEB8E030B9207EBE8
:103EE800031202EBCE0C0CEBCE03029203EBCE02D4
:103EF80001931346D3ED01DA019BD0ED007A93EDDF
:103F080001DA029BCDED027A93ED01CA0B9BDCED41
:103F180001CAD3ED007A0C9BCDED017A02EBCE02FB
:103F280002EBCE01009201EBCE02D3ED007A92EDC6
:103F380001FA009AD1ED01EA92ED01EAD7ED00BA53
:103F480096ED00BA95ED00AAD4ED009ACDED007A71
:103F5800DDE90376DDE90554DDE90701DDE909233B
:103F6800C44601E0F304353F91ED006A56ED01FACD
:103F7800D0ED002AD4ED005AD5ED006A93ED007A11
:103F880057ED017A92ED002A96ED008A7FEE870AB6
:103F980032EE061A37EEA24A75EEA64A70EE841A79
:103FA80031EE245A32EE462A31EE856A75EEE65A2B
:103FB80006ED016AD4ED018A92ED019A91ED013A7C
:103FC80095ED016A97ED000AD0ED016AD3ED013A4B
:103FD8003FEEC77A77EEE27A78EEC6FA79EE432AB0
:103FE80039EE033A30EE669A38EE866A70EE266A43
:103FF80078EE638A32EEEF0A72EEAF2A78EE233A51
:1040080030EEC44A32EE258AF0EE490A72EE655A5D
:10401800E2EEAA0ADC44E245A2EEEA9AB0EE682A89
:10402800F0EE472AE5EEAA2AA5EEEA7AA0EE2A2AB9
:1040380073EE065AE0EE6A8AF0EE67FA33EEA60AE5
:10404800E8EE6A7A71EE644A31EEC55A33EE463AC2
:1040580070EE651A73EEE63A34EE036A72EEA06A01
:1040680034EE434A72EEE00A33EEE43AE8EE2AFA16
:1040780074EEA33A65EE6D2A77EE094A37EE499A4F
:1040880038EEE77A77EEA88A6DEEA17A9DED018A7F
:10409800E9EE857AE9EEA12A26EE6C5A6CEE831ACF
:1040A80032EE6F1AA8EE035AE8EE061A2EEEA33A7D
:1040B80024EE6E6A9DED008A3FEE822AABEE043A4A
:1040C800ABEE236A2CEE014A66EECC3AA8EE264AFD
:1040D800E8EE013A6FEE026A20EECF1AEBEEA06A24
:1040E800ABEE821A64EECE0A2EEE072A9DED028A06
:1040F800EAEE070AAAEE242A2DEE287A69EE4D4A3E
:10410800A8EE097AE8EE284A70EE255AC6ED005A5C
:10411800C3ED007AC3ED012A4E4447ED011A87ED3D
:10412800005A4B4480ED003A80ED016A4F4482ED1D
:10413800004AC2ED013A4844C5ED006A85ED011A0E
:104148004A4481ED002A4D44C1ED010A84ED007A0C
:10415800C4ED014A49444C443FF606AF0A9B083374
:104168000A93099B08330993089B08330893079B14
:1041780008330793069B08330693059B083305937A
:10418800049B08330493039B083303930D9B08F1A6
:10419800010843457FF48EAE0E9BDDF834B0DB009A
:1041A8009BB2D1460E9361E513B0BDEC108BBDE810
:1041B800F08F00BF38B503782DED0A8BD0ED01AA3A
:1041C80030EE609A044669EE2AAAF0EE408AF0EED4
:1041D800607A0D46F0EE419AF0EE61BAB0EE42CA4E
:1041E800002B5DD190ED0B7A01F00103002B50D02C
:1041F80039EE477AF0EE497A87EE290AD4ED090AB2
:10420800C4ED0B7AF5EEC00AF1EE10FA53DC94ED2A
:1042180003AA20EE0AAA94ED0ABA94ED050A3AEE2A
:104228008B8A68EE808A38EE0A8AB0EE4C1A38EE2D
:10423800288AF0EE6B0AB0EE480A4FF0A5FED4EDDE
:10424800027A94ED047AC4ED0F8A29EE279AF0EEEB
:104258004B7AE9EE897A6B0730EE488A84ED0CBA1E
:1042680028EE078AC4ED0DAAE9EE887A84ED0EAA35
:1042780084ED100A08D5B0EECBBAB0EEE77AB4EE0A
:10428800CB7AF1EE10FA01D5C4ED0A7ABDEC0A8BAF
:1042980038BD37EEC77AB1EE477A87EE290AADE71F
:1042A80011F001034FF000020CBFB0EE607AB0EEDF
:1042B800497A02709AE7B0EE691A04F1180094ED91
:1042C80003AA4DF095FD2AEE00AAA4E730B41C78A5
:1042D80084B1012C0CD1B3F902408AB1157B94FB4F
:1042E800F5F40470B3F90430527B93FBF2F30B70CE
:1042F80030BC70479A780270DB780B7030BC70471E
:10430800054A82FB0452E417C4EB62040470B3F953
:1043180004301222E9E700BFABAAAA2A30B41C78FD
:104328004CB1012C05D1B3F90220B3F90430026075
:104338000B6030BC70479C7852B1157BDB7815FB5D
:1043480004F40460527B03FB02F330BC0B6070473B
:1043580004EB4404A400DB7804601222F3E700BFF6
:104368002DE9F04F2DED028B87B00446324D0393B3
:1043780010460E46B0EE408A174651F0E9FFD5F8D0
:1043880028BE9DF848A0DBF800308BF80B604FF092
:10439800000820448BF80A00CDF8008058463246C1
:1043A800D3F814B09DF84C903B462146D8479FED72
:1043B800230A039B019328EE000A5346FDEEC07AB8
:1043C800CDF8008017EE901A424604A814F0A0FE1B
:1043D800D5F82C3E13B11B784B452AD0D5F8383E7A
:1043E80013B11B784B4524D0D5F8443E13B11B7844
:1043F8004B451ED0D5F8503ECBB11B78A3EB09092D
:10440800B9FA89F94FEA5919384651F0A1FF013430
:104418000444E1B2D5F8280ECDF8009004AB32463A
:1044280048F028FA07B0BDEC028BBDE8F08F99463A
:10443800EAE74FF00109E7E7983E00200000C8428C
:1044480030B583B00C460546019214F023FA019B5F
:104458002246294648F0C4FA094A92F95C3E02EB22
:10446800430101335BB2352BC8BF0023012081F81B
:10447800605E81F8614E82F85C3E03B030BD00BFDB
:10448800983E0020F8B5214D1D260C46074685F8B4
:10449800CC6E2CF09DFE00202CF01AFE08202CF08B
:1044A80017FE0E202CF014FE30462CF011FE0420CE
:1044B8002CF00EFE04202CF00BFE00202CF008FE41
:1044C80030202CF005FE00202CF002FE20462CF0B7
:1044D800FFFD00202CF0FCFD2CF058FE05F56D606A
:1044E8002CF054FD00B9F8BD95F8D03E63B995F8A5
:1044F800D13E302B00D03BB995F8D23E23B995F880
:10450800D33E3B700120F8BD0120F8BD983E002045
:10451800164991F8A82032B3F0B4064600200346A5
:10452800074602E092F8A820DAB100EB80002E2AB4
:104538004FEA400004D10133CA18324482F8A87007
:10454800CA18A0F1300592F8A820A2F13004092C6D
:1045580098BF50190E2B03F1010301EB0302E1D9B7
:104568000020F0BC70470020704700BF983E002034
:1045780010B50A4C04F6FC100FF0ACFAD4F8083A5F
:10458800C01A4FF04BFD0028B8BF404242F21073EA
:104598009842D4BF0020012010BD00BF983E0020E3
:1045A80070B5164ED6F8E03E1A791E3A012A05462D
:1045B80005D91846002147F0EFFCD6F8E03E002D5B
:1045C8000ADD0F4C254414F8011B184647F0E4FC9B
:1045D800A542D6F8E03EF6D11846002147F0DCFCAB
:1045E8000849B6F8103FD1F8B418074AC6F8081FAA
:1045F80001330021A6F8103F516070BD983E00209D
:104608007C4D0020A81C0020A04D00202DE9F04181
:10461800274B86B09C1D1E4603F160081F464FF0CD
:10462800000C94F800E0A0EB0E05A0EB0C02002DA6
:10463800B8BF6D42002AB8BF52429542B8BF27465C
:1046480004F10604B8BF4FFA8EFCA045E9D17C8876
:1046580003F15A0E002204E02546B64516D016F896
:10466800062F6245F8D1B6F80280A1EB08020B1BB1
:10467800002AB8BF5242002BB8BF5B42934225467E
:10468800EBDDB645444645463746E8D17E793C7968
:1046980002953A78019200910346CDE90346054A0E
:1046A8000321012050F020FA384606B0BDE8F08119
:1046B800FCD005080C4D060810B51C2047F08AFCF4
:1046C8001121044647F0F4FC204647F01DFDC820A0
:1046D80047F050FB2046BDE8104047F09FBF00BFA1
:1046E8002DE9F04FB34CD4F8CC385A69D2078BB0C7
:1046F80002D50BB0BDE8F08F5A699B6912EA030A2C
:10470800F7D0CAF307431AF4002F009340F0028150
:10471800009B5D0743D41AF0020F5FFA8AF503D0B5
:10472800D4F8CC3802225A61BAF1000FC0F21182D3
:104738001AF4006FCAF3072740F084812E0708D5C2
:104748009D4B9E48D3F8B4399847D4F8CC38082202
:104758005A61ED0600F1E981F80600F1A981B90670
:1047680000F12E81009BDA0609D5934B9348D3F8C4
:10477800C4399847D4F8CC384FF480125A61009B5A
:104788009B06B6D58C4B8D48D3F8C8399847D4F8D2
:10479800CC384FF400125A610BB0BDE8F08FD4F852
:1047A800D0289369D26913401FFA83FBBBF1000F2D
:1047B800B1D0DFF80882CDF80CA045464FF00009CB
:1047C80009E05FEA5B0B09F1010908F1040805F14A
:1047D800280500F0DA811BF0010FF2D0D4F8D018C8
:1047E8005FFA89F708694A6B04EB8703FA40D3F844
:1047F800D838D2019B68D2B202431A40D007D3B24C
:1048080016D54B6BD8F81820012000FA09F023EAD6
:1048180000034B63684B6948D3F8AC3901219160B8
:104828003946984794F8C368012E00F0FC810123AB
:104838001A0703D5D8F8182008239360DE0603D595
:10484800D8F8182010239360580603D5D8F81820F4
:1048580040239360990703D5D8F818200223936062
:104868001A06AED5D5E94C60D5F82431D8F818C069
:10487800311A8B42DCF8182028BF0B46033392B25A
:10488800B2EB930F9DD9D4F8D028323704EB8703C5
:10489800CDE9019890469946B04238D2BEB3D5F8D2
:1048A800241194F8C338D5F82821371AB94228BFFB
:1048B800394601F1030E4FEA9E0E83B98FB20337D2
:1048C800BF10D9F8C8A80AD0013352F8040BCAF8A7
:1048D80000009F42F8D1D5E94C60D5F82821DCF8D2
:1048E800183008440A44B042C5F82821C5F83401F4
:1048F8000AD195F81C11D8F83420012707FA01F1DC
:1049080022EA0102C8F834209BB29E45C4D3DDE9EF
:10491800019856E7D4F8D0389D69DB691D402D0C05
:104928003FF4F6AE04F50C66DFF88CB0B046B1463D
:10493800002708E06D0807F1010706F1040608F1F1
:1049480028083FF4E5AEEB07F4D5F9B204EB810291
:10495800D4F8D038D2F8142992685B691A40D00785
:10496800D3B218D594F8C308726D012398429360A6
:1049780007D11269D8F87C33C2F312029B1AC8F81F
:104988008C33DBF8A8394846984794F8C338012B8C
:1049980000F0578101239A0702D5726D02239360B4
:1049A8001B07C7D5DBF8B03948469847736D08220E
:1049B8009A60BFE7A02D002000000020603600208C
:1049C800D4F8D038D4F8D8189A680868C2F34102E5
:1049D800022A08BF03224FF0000514BF65F30A003E
:1049E80062F30A0008605A6842F480725A6006A8A6
:1049F80051F0A6FBD4F8CC28D4F8D008D368BF4926
:104A0800079D6FF38D23D3608068C0F34100014494
:104A180091F89C11032900F0CF80B949B9480126C3
:104A2800294484F8C26881424FF04006A4F8C4685B
:104A380000F215810E2161F38D234FF40051D360EC
:104A480051618FE6B04B94F8D229D3F8BC39AF48FE
:104A580000218DF817108DF817209847D4F8D01832
:104A6800D4F8CC2894F8CA3888684FF400615161AA
:104A7800002B3FF463AEC3077FF560AE94F8D539D9
:104A8800012B7FF45BAE9DF81730032B7FF456AEF5
:104A9800D4F8CC399E491A6842F001021A601A68A3
:104AA80042F003021A600B6943F006030B6145E606
:104AB800D4F8D028954853684FF0000823F0010334
:104AC8004146536051F06CF994F8C168414656B1BB
:104AD800904BFF2203EB860653F8045FD86BAA605D
:104AE8009E428260F8D1D4F8D03888484FF0FF321F
:104AF8009A614FF00112DA610B2262F3070162F347
:104B08000708C3F8148019611A686FF30A121A604B
:104B180050F01AFED4F8CC287B4B7C48D3F8B8392F
:104B28004FF480515161984719E6D4F8CC389A6906
:104B380022F010029A611A6AC2F34340022802F076
:104B48000F0144D0062823D09A6942F010029A61D6
:104B580002E694F8CA383BB1D4F8CC29136823F09C
:104B6800030161F307031360D4F8D028664953683A
:104B7800D1F8C019654823F0010353608847D4F879
:104B8800CC384FF000425A61D2E5DDF80CA0C2E5FE
:104B980001EB8101D4F8905904EBC1012E68D1F8DA
:104BA8004C0CC4F88C6EC2F30A1202442868C4F88C
:104BB800900EC1F84C2CC7E700214FF4007084F820
:104BC800C2180921A4F8C40861F38D2335E747F614
:104BD800F0701042B8D001EB8100C2F30A1204EB66
:104BE800C00002F1030C5FEAAC0CD0F8405CD4F8CA
:104BF80090E94FEA810818BF002006D00130DEF89E
:104C0800006045F8046B8445F8D1414404EBC101C8
:104C1800D1F8405CD1F84C0C15440244C1F8405C12
:104C2800C1F84C2C90E7B9F1000F7FF400AE94F86E
:104C3800D139042B7FF4FBAD344850F085FD334661
:104C4800F6E5002F7FF4A6AE94F8D129052A7FF463
:104C5800A1AE4846019350F077FD019B9BE62E4894
:104C6800A5F57401A1F51051814203D80D2161F316
:104C78008D23E2E629492A482944814203D20C219E
:104C880061F38D23D9E62748A5F18C71A1F543413D
:104C9800814203D80B2161F38D23CEE622492348B4
:104CA8002944814203D20A2161F38D23C5E62049B4
:104CB80020482944814203D2092161F38D23BCE6AF
:104CC8001D48A5F1B771A1F55851814203D20821B9
:104CD80061F38D23B1E6194919482944814203D269
:104CE800072161F38D23A8E6164917482944814214
:104CF80034BF0621052161F38D239EE6C0CF050848
:104D0800401E1BFF3F420F000000002060360020BD
:104D180000ED00E074360020DFC810002013FBFE11
:104D280020D61300FF69180000D3CEFE40771B0081
:104D3800C05BB3FEC091210040AC2700C01D6AFED5
:104D480040E13300803C36FEE09C4100704700BFE4
:104D5800704700BF704700BF704700BF4FF0FF307B
:104D6800F8B5314A314D0446002304E00133082BDD
:104D780002F1100215D0917A0429F7D103F5817157
:104D880005EB0111C979CF07F0D4661C116801D071
:104D98008142EBD21C460133082B084602F110026F
:104DA800E9D1631C01D10120F8BD204D204F04F545
:104DB800817605EB06139988E1B91E49D7F8203F9B
:104DC80001EB44210BB341F2180205EB0414DF6830
:104DD800A058194A0023B847B8B1022821D141F296
:104DE8009C0205EB0616AB580121013BAB50B17193
:104DF8000020F8BDD7F8202F3AB105EB041341F293
:104E08001800926818589047D7E741F29C0205EBC2
:104E18000616AB5809490320013BB071AB5001207D
:104E280008700020F8BD00BF34630020185300202C
:104E3800983E002030530020614E0008B8630020DF
:104E4800044B41F2B412995C09B901219954012229
:104E58005A70704718530020174B002010B503F8FC
:104E68007A0904E00130082803F1100315D053F83B
:104E78000E4C8C42F6D11C78032CF3D172B10F4B37
:104E880003EB40239A4201D0FFF7DAFF0C4B00F501
:104E9800817003EB00100123837110BD084A41F2B1
:104EA8009C0400F58173115902EB031304200131AE
:104EB8009871115110BD00BFB86300203053002015
:104EC8001853002038B5134B00209C7B14B11D6883
:104ED8008D4205D00130082803F11003F5D138BD03
:104EE80072B10D4B03EB40239A4210D0FFF7A8FF95
:104EF8000A4B00F5817003EB00100123837138BD64
:104F0800064B00F5817003EB0010827138BD022C4E
:104F1800ECD1EDE730630020305300201853002017
:104F28002DE9F84F12F0020E9B4606D028B9FFF77C
:104F380087FF02252846BDE8F88F814C41F20825F5
:104F48006559002D5BD14FF0FF367E4FB146B04614
:104F5800B24600253B68984200F0C58097F80EC01D
:104F6800BCF1000F5BD0BCF1010F15D105F5817CB8
:104F780004EB0C1C9CF807C01CF0010F0CD11CF0B2
:104F88007E0F09D15FEADC1340F09E80D7F808C095
:104F9800D44501D2E246A9460135082D07F110078C
:104FA800D8D1751C04D1B8F1FF3F00F09580464672
:104FB80041F2980806F5817754F80850013544F80D
:104FC800085004EB061C41F21C094FEA07184CF87C
:104FD800095044F8085041F2180904EB07154FF03E
:104FE80000084CF80900C5F8048004EB0715AD79F2
:104FF800042D9CD8DFE805F01A330F334D0041F239
:10500800102741F20C26E759A65907FB0565A84267
:1050180099D3FFF715FF00252846BDE8F88F2E46DF
:105028000135082D07F1100794D1BAE712F0010CE9
:1050380070D104EB0710D51090F80780BBF1030F6F
:1050480065F3C71880F8078062D94FF6FF7083456B
:105058005B4628BF03469BB204EB07108380BEF172
:10506800000F16D004EB061303F580531833987B12
:1050780004280ED041F298054FF0040C6059013015
:10508800605141F29C05586083F80EC063590133A2
:105098006351500705D504EB0710C37943F00103AA
:1050A800C371D30608D504EB0714E379C3F34502AB
:1050B800013262F34603E371234B012503EB4626D5
:1050C8000E602846BDE8F88FA8460135082D07F17F
:1050D80010077FF43FAF64E7B9F1FF3F18BF4E46B2
:1050E8007FF466AF97E705F5817704EB07164FEA7B
:1050F800071CB6790EB92E465AE741F298082E4693
:1051080054F80850013544F8085044F80C506CE73E
:105118006346A1E70D4BD3F8203F002B3FF47BAF4C
:105128000949D3F804800A4A01EB46210023C04705
:1051380000283FF470AF04EB07140223A371F9E6CB
:10514800185300203063002030530020983E002080
:10515800CD4E000870B5114E3378022B104B0D461A
:1051680007BFC4B2010AC0F3D41100F07F04186865
:1051780082B008440023012201A9FFF7D1FE0128CB
:105188000AD13378022B019B16BF53F8243033F829
:10519800143023F070432B6002B070BD1853002008
:1051A8001865002010B5144602070B4610D50B49A8
:1051B80041F29412581C8B58834204D305D1002322
:1051C8002360012010BDFFF73BFE2060012010BDC9
:1051D80021461846BDE81040BCE700BF1853002020
:1051E8002DE9F0414268C2F308030B44B3F5007F90
:1051F80082B004460D465ED390F91A30591C0AD085
:10520800334A03F5817302EB0313FF21DA796FF355
:105218000002DA71817694F91B305A1C16D02C4999
:1052280003F5817201EB021301EB0212DB79D179EC
:10523800C3F34503012B86BF03F1FF3303F03F039C
:105248000023FF2063F34601D171E0762378022B17
:1052580037D01F4A41F21023D358B5EB432F4FEAFA
:10526800432824DC41F218236768D6583E4073422D
:10527800AB421CDCAB19434511D32169207E01AA3E
:10528800FFF790FF012812D16768236963614744DB
:10529800019B2361A5EB0801BF1B67608D192046A0
:1052A800FBF772F920B93D446560012000E0002059
:1052B80002B0BDE8F08115444560012002B0BDE8A8
:1052C800F081616801202944616002B0BDE8F08185
:1052D8001853002070B5154604460E46FFF780FFA8
:1052E80050B994F8280028B9022384F82830C4E972
:1052F8000B5670BD022070BD1DB12046A847012085
:1053080070BD012070BD00BF10B4D0E9011390F941
:105318001A208B4238BF0B46511C83600AD0174BAA
:1053280002F5817203EB0212FF21D3796FF30003B8
:10533800D371817690F91B305A1C16D00F4903F5AA
:10534800817201EB021301EB0212DB79D179C3F30D
:105358004503012B86BF03F1FF3303F03F0300230E
:10536800FF2463F34601D171C4760022436A5DF8D5
:10537800044B4261426011460361ABE718530020B9
:1053880038B544220021114857F06DFD104B0F48E5
:105398001A7841F2D2114FF6FF745C5241F2D011E3
:1053A80003245C54022A41F2B81118BF032241F2C7
:1053B8001C255A5441F2DC1441F2D1125D591D5199
:1053C80010219954FFF7A0FF012038BDD0640020B8
:1053D800185300202DE9F041B1F904300F2B82B0A9
:1053E8000C461646054632D02846FBF7F1F895F9E3
:1053F8001B80B8F1FF3F074633D02D4B41F218020E
:1054080003EB08118A58904211D1183303EB482353
:10541800A188013109B203EB4113A180284633600A
:10542800FBF7D6F82060012002B0BDE8F081FFF755
:1054380007FD2846FBF7A8F828B1002301203360B0
:1054480002B0BDE8F081002002B0BDE8F0814FF461
:105458000071FFF7C5FE0028F5D04FF6FF73A38053
:10546800C2E72846FBF790F80028E2D10FB9FFF70A
:10547800E7FC38460023112201A9FFF751FD012856
:10548800D7D1019B0B4A9A1A48BF02F2FF12B2F514
:10549800805F4FEA622106D24FFA81F885F81B80B7
:1054A800002BB5D1C5E7FFF7CBFC019BF6E700BFA2
:1054B800185300203053002030B50446C06983B02B
:1054C80010B9012003B030BD0D460023032201A905
:1054D800FFF726FD0128F5D1B4F92030002B03DAB7
:1054E800FFF7AEFC0220EDE7019A012D4FEA4311C8
:1054F80002EB431303D0022D12D1E5255554A268BF
:10550800DA612278032A04D100221A775A779A7727
:10551800DA77626A5A83C2F30F429A8203B030BDC7
:10552800E268DA61EDE700BF10B50378023B012BB2
:105538000446037E02D913F0060F66D19B0641D4B8
:1055480094F91A30581C0AD0344A03F5817302EBD7
:105558000313FF21DA796FF30002DA71A17694F967
:105568001B20511C16D02D4802F5817200EB021346
:10557800D97900EB0213C1F345010129DA7986BF15
:1055880001F1FF3101F03F010021FF2061F34602E4
:10559800DA71E076237E1B070BD5204841F2981379
:1055A800C35C072B01D0FFF74BFC41F29813002294
:1055B800C254E26A0023237084F8283022B3BDE87D
:1055C8001040104700231649E0691A018A58904292
:1055D80006D00133082BB3D01A018A589042F8D16B
:1055E8000E4803F5817300EB0312D279C2F345022A
:1055F800012A11D9013A02F03F0200EB0313D979CD
:1056080062F34601D9719BE710BD0121FFF754FFF2
:105618000128F9D1237E91E70022EEE718530020F4
:105628003063002030B1027822B190F828201AB1F6
:10563800002070470120704710B5D0E90142A2420E
:10564800C16238BF22460321826080F82810FFF724
:105658006BFF012010BD00BF2DE9F04FDFF864910A
:105668008A4699F80010DAF800300229174683B004
:10567800834609F5905240F08A801568DEB2A6EBA1
:10568800030805EB1325B8444FF480729044BB42DD
:1056980008F1FF38B8FBF2F875D2A844032906EBE5
:1056A8000704A4EB03040CBF80224FF480729442D9
:1056B80028BF1446A8EB050366B994422CBF0A22FA
:1056C8000B2201A92846FFF72BFC012809D003B0BB
:1056D800BDE8F08F0B2201A92846FFF721FC01281D
:1056E800F5D199F80020DAF80010022A01F1010337
:1056F80021D0A64210D2019906F18042013A081F32
:1057080000EB840001EB820242F8043F824203F17D
:105718000103F9D1DAF80010A61B7318BBF1010FC9
:10572800CAF800301BD0BB4205F101052BD299F80D
:1057380000100026B2E7A642EED2DDF804C006F15A
:105748000042013AACF1020000EB44000CEB4202CB
:1057580022F8023F904203F10103F9D1DCE7BB4292
:10576800E1D199F80030022B20D004F18044019B4C
:10577800013C4FF0FF3243F82420DAF80030BB42F6
:1057880005F10105D3D3012003B0BDE8F08F1268FD
:1057980003F07F060329C3F3D415A6EB03081544C9
:1057A800B84414BF4FF4807280226FE704F10044BC
:1057B800019B013C4FF6FF72584623F8142003B0B2
:1057C800BDE8F08F185300202DE9F04190F83830EB
:1057D8000446032B51D8DFE803F002323B462D4B39
:1057E800C0681978E76A41F21022032999580CBF5A
:1057F80080264FF4807601FB06F141F2941C00EB01
:10580800412041F2781841F27C1E53F80C20E060E8
:1058180053F80E0053F808502261A5EB4125A0EB80
:105828004121901943F8085043F80E1043F80C0032
:10583800C4E90C205FBB6262012384F83830164843
:105848000021FFF739FE012811D1022384F83830EE
:10585800626B04F130010120FFF7FEFE012806D13A
:10586800032384F8383000212046FFF725FE431E25
:10587800DBB2012B02D9BDE8F081012094F8283071
:10588800062B04BF002384F82830BDE8F081921B62
:105898002263D1E718530020886400202DE9F04FD7
:1058A800DFF8248198F80060012887B08CBF0023B6
:1058B8000123032E02930C460B68154639D0022E9D
:1058C80062D14FF480724FEA1329DFB20192013896
:1058D800012823D8012203929D421AD9384E06F195
:1058E800880A06F11C0B32681AB1DBF800109942DD
:1058F8004ED0DAF8000000234844092205A9FFF732
:105908000FFB01281FD002280FD020B123689D4229
:10591800E9D82560032007B0BDE8F08F87B1FFF70D
:105928008FFA022007B0BDE8F08F022007B0BDE86B
:10593800F08F80220192C3F3D41903F07F07C6E7E2
:10594800019A0392C8E7DDE902C1059ADDF804E08F
:1059580098F80030022B14D0032BE6D152F82730E8
:1059680023F07043B3FA83F35B0963450F4423685C
:1059780023D00B4477452360EAD309F101090027B6
:10598800C5E732F81730EDE74FF480720192D2E79D
:105998000C490968013A02EB41224902B2FBF1F2D3
:1059A80003991344B3FBF1F201FB12320AB10B4421
:1059B8009B1A9D42236096D8ABE7AB42ABD3A8E7CE
:1059C80090640020286500201853002070B5104E00
:1059D8003378022B0F4B0D4607BFC4B2010AC0F340
:1059E800D41100F07F04186882B008440023032211
:1059F80001A9FFF795FA012807D13378022B019BFB
:105A08000CBF23F8145043F8245002B070BD00BFF7
:105A180018530020186500202DE9F04390F83C3019
:105A2800002983B0044614BF02210021042B00F290
:105A38008780DFE803F0030C3C476800FFF73CFD74
:105A480001286FD1626B002A76D184F83C003E4E63
:105A5800DFF800813D4D4FF6F7771DE01FFA80F91A
:105A6800B94594BF4FF000094FF0010901A9B9F1F8
:105A7800000F45D1FFF76EFB012849464FD1206B37
:105A8800FFF7A4FF01284AD1019B2A682363013B41
:105A9800934228BF13462B603378206B032BDDD14C
:105AA800404594BF4FF000094FF00109DEE7426B13
:105AB80004F130010020FFF7CFFD012832D1032384
:105AC80084F83C30204BE56A214841F2941641F2B3
